{
  "contractName": "SavageSnowmen",
  "abi": [
    {
      "inputs": [
        {
          "internalType": "string",
          "name": "name",
          "type": "string"
        },
        {
          "internalType": "string",
          "name": "symbol",
          "type": "string"
        },
        {
          "internalType": "string",
          "name": "tokenBaseURI",
          "type": "string"
        },
        {
          "internalType": "uint256",
          "name": "mintPrice",
          "type": "uint256"
        },
        {
          "internalType": "uint256",
          "name": "cap",
          "type": "uint256"
        },
        {
          "internalType": "address payable",
          "name": "treasuryWallet",
          "type": "address"
        },
        {
          "internalType": "address payable",
          "name": "royaltiesWallet",
          "type": "address"
        }
      ],
      "stateMutability": "nonpayable",
      "type": "constructor"
    },
    {
      "anonymous": false,
      "inputs": [
        {
          "indexed": true,
          "internalType": "address",
          "name": "owner",
          "type": "address"
        },
        {
          "indexed": true,
          "internalType": "address",
          "name": "approved",
          "type": "address"
        },
        {
          "indexed": true,
          "internalType": "uint256",
          "name": "tokenId",
          "type": "uint256"
        }
      ],
      "name": "Approval",
      "type": "event"
    },
    {
      "anonymous": false,
      "inputs": [
        {
          "indexed": true,
          "internalType": "address",
          "name": "owner",
          "type": "address"
        },
        {
          "indexed": true,
          "internalType": "address",
          "name": "operator",
          "type": "address"
        },
        {
          "indexed": false,
          "internalType": "bool",
          "name": "approved",
          "type": "bool"
        }
      ],
      "name": "ApprovalForAll",
      "type": "event"
    },
    {
      "anonymous": false,
      "inputs": [
        {
          "indexed": true,
          "internalType": "address",
          "name": "previousOwner",
          "type": "address"
        },
        {
          "indexed": true,
          "internalType": "address",
          "name": "newOwner",
          "type": "address"
        }
      ],
      "name": "OwnershipTransferred",
      "type": "event"
    },
    {
      "anonymous": false,
      "inputs": [
        {
          "indexed": false,
          "internalType": "address",
          "name": "account",
          "type": "address"
        }
      ],
      "name": "Paused",
      "type": "event"
    },
    {
      "anonymous": false,
      "inputs": [
        {
          "indexed": false,
          "internalType": "uint256",
          "name": "tokenId",
          "type": "uint256"
        },
        {
          "components": [
            {
              "internalType": "address payable",
              "name": "account",
              "type": "address"
            },
            {
              "internalType": "uint96",
              "name": "value",
              "type": "uint96"
            }
          ],
          "indexed": false,
          "internalType": "struct LibPart.Part[]",
          "name": "royalties",
          "type": "tuple[]"
        }
      ],
      "name": "RoyaltiesSet",
      "type": "event"
    },
    {
      "anonymous": false,
      "inputs": [
        {
          "indexed": true,
          "internalType": "address",
          "name": "from",
          "type": "address"
        },
        {
          "indexed": true,
          "internalType": "address",
          "name": "to",
          "type": "address"
        },
        {
          "indexed": true,
          "internalType": "uint256",
          "name": "tokenId",
          "type": "uint256"
        }
      ],
      "name": "Transfer",
      "type": "event"
    },
    {
      "anonymous": false,
      "inputs": [
        {
          "indexed": false,
          "internalType": "address",
          "name": "account",
          "type": "address"
        }
      ],
      "name": "Unpaused",
      "type": "event"
    },
    {
      "inputs": [],
      "name": "_cap",
      "outputs": [
        {
          "internalType": "uint256",
          "name": "",
          "type": "uint256"
        }
      ],
      "stateMutability": "view",
      "type": "function"
    },
    {
      "inputs": [
        {
          "internalType": "address",
          "name": "to",
          "type": "address"
        },
        {
          "internalType": "uint256",
          "name": "tokenId",
          "type": "uint256"
        }
      ],
      "name": "approve",
      "outputs": [],
      "stateMutability": "nonpayable",
      "type": "function"
    },
    {
      "inputs": [
        {
          "internalType": "address",
          "name": "owner",
          "type": "address"
        }
      ],
      "name": "balanceOf",
      "outputs": [
        {
          "internalType": "uint256",
          "name": "",
          "type": "uint256"
        }
      ],
      "stateMutability": "view",
      "type": "function"
    },
    {
      "inputs": [
        {
          "internalType": "uint256",
          "name": "tokenId",
          "type": "uint256"
        }
      ],
      "name": "burn",
      "outputs": [],
      "stateMutability": "nonpayable",
      "type": "function"
    },
    {
      "inputs": [
        {
          "internalType": "uint256",
          "name": "tokenId",
          "type": "uint256"
        }
      ],
      "name": "getApproved",
      "outputs": [
        {
          "internalType": "address",
          "name": "",
          "type": "address"
        }
      ],
      "stateMutability": "view",
      "type": "function"
    },
    {
      "inputs": [
        {
          "internalType": "uint256",
          "name": "id",
          "type": "uint256"
        }
      ],
      "name": "getRaribleV2Royalties",
      "outputs": [
        {
          "components": [
            {
              "internalType": "address payable",
              "name": "account",
              "type": "address"
            },
            {
              "internalType": "uint96",
              "name": "value",
              "type": "uint96"
            }
          ],
          "internalType": "struct LibPart.Part[]",
          "name": "",
          "type": "tuple[]"
        }
      ],
      "stateMutability": "view",
      "type": "function"
    },
    {
      "inputs": [
        {
          "internalType": "address",
          "name": "owner",
          "type": "address"
        },
        {
          "internalType": "address",
          "name": "operator",
          "type": "address"
        }
      ],
      "name": "isApprovedForAll",
      "outputs": [
        {
          "internalType": "bool",
          "name": "",
          "type": "bool"
        }
      ],
      "stateMutability": "view",
      "type": "function"
    },
    {
      "inputs": [],
      "name": "name",
      "outputs": [
        {
          "internalType": "string",
          "name": "",
          "type": "string"
        }
      ],
      "stateMutability": "view",
      "type": "function"
    },
    {
      "inputs": [],
      "name": "owner",
      "outputs": [
        {
          "internalType": "address",
          "name": "",
          "type": "address"
        }
      ],
      "stateMutability": "view",
      "type": "function"
    },
    {
      "inputs": [
        {
          "internalType": "uint256",
          "name": "tokenId",
          "type": "uint256"
        }
      ],
      "name": "ownerOf",
      "outputs": [
        {
          "internalType": "address",
          "name": "",
          "type": "address"
        }
      ],
      "stateMutability": "view",
      "type": "function"
    },
    {
      "inputs": [],
      "name": "paused",
      "outputs": [
        {
          "internalType": "bool",
          "name": "",
          "type": "bool"
        }
      ],
      "stateMutability": "view",
      "type": "function"
    },
    {
      "inputs": [],
      "name": "renounceOwnership",
      "outputs": [],
      "stateMutability": "nonpayable",
      "type": "function"
    },
    {
      "inputs": [
        {
          "internalType": "uint256",
          "name": "",
          "type": "uint256"
        },
        {
          "internalType": "uint256",
          "name": "",
          "type": "uint256"
        }
      ],
      "name": "royalties",
      "outputs": [
        {
          "internalType": "address payable",
          "name": "account",
          "type": "address"
        },
        {
          "internalType": "uint96",
          "name": "value",
          "type": "uint96"
        }
      ],
      "stateMutability": "view",
      "type": "function"
    },
    {
      "inputs": [
        {
          "internalType": "address",
          "name": "from",
          "type": "address"
        },
        {
          "internalType": "address",
          "name": "to",
          "type": "address"
        },
        {
          "internalType": "uint256",
          "name": "tokenId",
          "type": "uint256"
        }
      ],
      "name": "safeTransferFrom",
      "outputs": [],
      "stateMutability": "nonpayable",
      "type": "function"
    },
    {
      "inputs": [
        {
          "internalType": "address",
          "name": "from",
          "type": "address"
        },
        {
          "internalType": "address",
          "name": "to",
          "type": "address"
        },
        {
          "internalType": "uint256",
          "name": "tokenId",
          "type": "uint256"
        },
        {
          "internalType": "bytes",
          "name": "_data",
          "type": "bytes"
        }
      ],
      "name": "safeTransferFrom",
      "outputs": [],
      "stateMutability": "nonpayable",
      "type": "function"
    },
    {
      "inputs": [
        {
          "internalType": "address",
          "name": "operator",
          "type": "address"
        },
        {
          "internalType": "bool",
          "name": "approved",
          "type": "bool"
        }
      ],
      "name": "setApprovalForAll",
      "outputs": [],
      "stateMutability": "nonpayable",
      "type": "function"
    },
    {
      "inputs": [],
      "name": "symbol",
      "outputs": [
        {
          "internalType": "string",
          "name": "",
          "type": "string"
        }
      ],
      "stateMutability": "view",
      "type": "function"
    },
    {
      "inputs": [
        {
          "internalType": "uint256",
          "name": "index",
          "type": "uint256"
        }
      ],
      "name": "tokenByIndex",
      "outputs": [
        {
          "internalType": "uint256",
          "name": "",
          "type": "uint256"
        }
      ],
      "stateMutability": "view",
      "type": "function"
    },
    {
      "inputs": [
        {
          "internalType": "uint256",
          "name": "",
          "type": "uint256"
        }
      ],
      "name": "tokenIdToTokenURI",
      "outputs": [
        {
          "internalType": "string",
          "name": "",
          "type": "string"
        }
      ],
      "stateMutability": "view",
      "type": "function"
    },
    {
      "inputs": [
        {
          "internalType": "address",
          "name": "owner",
          "type": "address"
        },
        {
          "internalType": "uint256",
          "name": "index",
          "type": "uint256"
        }
      ],
      "name": "tokenOfOwnerByIndex",
      "outputs": [
        {
          "internalType": "uint256",
          "name": "",
          "type": "uint256"
        }
      ],
      "stateMutability": "view",
      "type": "function"
    },
    {
      "inputs": [
        {
          "internalType": "uint256",
          "name": "",
          "type": "uint256"
        }
      ],
      "name": "tokenToMinter",
      "outputs": [
        {
          "internalType": "address",
          "name": "",
          "type": "address"
        }
      ],
      "stateMutability": "view",
      "type": "function"
    },
    {
      "inputs": [],
      "name": "totalSupply",
      "outputs": [
        {
          "internalType": "uint256",
          "name": "",
          "type": "uint256"
        }
      ],
      "stateMutability": "view",
      "type": "function"
    },
    {
      "inputs": [
        {
          "internalType": "address",
          "name": "from",
          "type": "address"
        },
        {
          "internalType": "address",
          "name": "to",
          "type": "address"
        },
        {
          "internalType": "uint256",
          "name": "tokenId",
          "type": "uint256"
        }
      ],
      "name": "transferFrom",
      "outputs": [],
      "stateMutability": "nonpayable",
      "type": "function"
    },
    {
      "inputs": [
        {
          "internalType": "address",
          "name": "newOwner",
          "type": "address"
        }
      ],
      "name": "transferOwnership",
      "outputs": [],
      "stateMutability": "nonpayable",
      "type": "function"
    },
    {
      "inputs": [],
      "name": "pause",
      "outputs": [],
      "stateMutability": "nonpayable",
      "type": "function"
    },
    {
      "inputs": [],
      "name": "unpause",
      "outputs": [],
      "stateMutability": "nonpayable",
      "type": "function"
    },
    {
      "inputs": [
        {
          "internalType": "bytes4",
          "name": "interfaceId",
          "type": "bytes4"
        }
      ],
      "name": "supportsInterface",
      "outputs": [
        {
          "internalType": "bool",
          "name": "",
          "type": "bool"
        }
      ],
      "stateMutability": "view",
      "type": "function"
    },
    {
      "inputs": [
        {
          "internalType": "string",
          "name": "uri",
          "type": "string"
        }
      ],
      "name": "setBaseURI",
      "outputs": [],
      "stateMutability": "nonpayable",
      "type": "function"
    },
    {
      "inputs": [
        {
          "internalType": "address payable",
          "name": "wallet",
          "type": "address"
        }
      ],
      "name": "setRoyaltiesWallet",
      "outputs": [],
      "stateMutability": "nonpayable",
      "type": "function"
    },
    {
      "inputs": [
        {
          "internalType": "uint256",
          "name": "tokenId",
          "type": "uint256"
        }
      ],
      "name": "tokenMinter",
      "outputs": [
        {
          "internalType": "address",
          "name": "",
          "type": "address"
        }
      ],
      "stateMutability": "view",
      "type": "function"
    },
    {
      "inputs": [
        {
          "internalType": "uint256",
          "name": "amount",
          "type": "uint256"
        }
      ],
      "name": "mint",
      "outputs": [],
      "stateMutability": "payable",
      "type": "function"
    },
    {
      "inputs": [
        {
          "internalType": "uint256",
          "name": "tokenId",
          "type": "uint256"
        },
        {
          "internalType": "string",
          "name": "_tokenURI",
          "type": "string"
        }
      ],
      "name": "setTokenURI",
      "outputs": [],
      "stateMutability": "nonpayable",
      "type": "function"
    },
    {
      "inputs": [
        {
          "internalType": "uint256",
          "name": "mintPrice",
          "type": "uint256"
        }
      ],
      "name": "setPrice",
      "outputs": [],
      "stateMutability": "nonpayable",
      "type": "function"
    },
    {
      "inputs": [],
      "name": "price",
      "outputs": [
        {
          "internalType": "uint256",
          "name": "",
          "type": "uint256"
        }
      ],
      "stateMutability": "view",
      "type": "function"
    },
    {
      "inputs": [
        {
          "internalType": "uint256",
          "name": "tokenId",
          "type": "uint256"
        }
      ],
      "name": "tokenURI",
      "outputs": [
        {
          "internalType": "string",
          "name": "",
          "type": "string"
        }
      ],
      "stateMutability": "view",
      "type": "function"
    },
    {
      "inputs": [
        {
          "internalType": "uint96",
          "name": "value",
          "type": "uint96"
        }
      ],
      "name": "setBasisPoints",
      "outputs": [],
      "stateMutability": "nonpayable",
      "type": "function"
    }
  ],
  "bytecode": "0x60806040523480156200001157600080fd5b506040516200334f3803806200334f8339810160408190526200003491620002b8565b8651879087906200004d9060009060208501906200014a565b508051620000639060019060208401906200014a565b5050600b805460ff1916905550620000846200007e620000ec565b620000f0565b600e84905560138390558451620000a39060109060208801906200014a565b50601180546001600160a01b039384166001600160a01b031991821617909155601280549290931691161790555050600f80546001600160601b031916905550620003d1915050565b3390565b600b80546001600160a01b03838116610100818102610100600160a81b031985161790945560405193909204169182907f8be0079c531659141344cd1fd0a4f28419497f9722a3daafe3b4186f6b6457e090600090a35050565b82805462000158906200037e565b90600052602060002090601f0160209004810192826200017c5760008555620001c7565b82601f106200019757805160ff1916838001178555620001c7565b82800160010185558215620001c7579182015b82811115620001c7578251825591602001919060010190620001aa565b50620001d5929150620001d9565b5090565b5b80821115620001d55760008155600101620001da565b80516001600160a01b03811681146200020857600080fd5b919050565b600082601f8301126200021e578081fd5b81516001600160401b03808211156200023b576200023b620003bb565b6040516020601f8401601f1916820181018381118382101715620002635762000263620003bb565b60405283825285840181018710156200027a578485fd5b8492505b838310156200029d57858301810151828401820152918201916200027e565b83831115620002ae57848185840101525b5095945050505050565b600080600080600080600060e0888a031215620002d3578283fd5b87516001600160401b0380821115620002ea578485fd5b620002f88b838c016200020d565b985060208a01519150808211156200030e578485fd5b6200031c8b838c016200020d565b975060408a015191508082111562000332578485fd5b50620003418a828b016200020d565b95505060608801519350608088015192506200036060a08901620001f0565b91506200037060c08901620001f0565b905092959891949750929550565b6002810460018216806200039357607f821691505b60208210811415620003b557634e487b7160e01b600052602260045260246000fd5b50919050565b634e487b7160e01b600052604160045260246000fd5b612f6e80620003e16000396000f3fe60806040526004361061020f5760003560e01c806370a082311161011857806395d89b41116100a0578063b88d4fde1161006f578063b88d4fde146105c6578063c87b56dd146105e6578063cad96cca14610606578063e985e9c514610633578063f2fde38b146106535761020f565b806395d89b4114610569578063a035b1fe1461057e578063a0712d6814610593578063a22cb465146105a65761020f565b80638456cb59116100e75780638456cb59146104d15780638924af74146104e65780638da5cb5b14610514578063919898aa1461052957806391b7f5ed146105495761020f565b806370a082311461045c578063715018a61461047c57806379cdf6ad146104915780637c57d947146104b15761020f565b80632f745c591161019b5780634f6ccce71161016a5780634f6ccce7146103c757806355f804b3146103e75780635c975abb146104075780635ebfebce1461041c5780636352211e1461043c5761020f565b80632f745c59146103525780633f4ba83a1461037257806342842e0e1461038757806342966c68146103a75761020f565b8063095ea7b3116101e2578063095ea7b3146102bb57806315f4013d146102dd578063162094c4146102fd57806318160ddd1461031d57806323b872dd146103325761020f565b806301ffc9a714610214578063060cf4e81461024a57806306fdde031461026c578063081812fc1461028e575b600080fd5b34801561022057600080fd5b5061023461022f3660046123c9565b610673565b6040516102419190612611565b60405180910390f35b34801561025657600080fd5b5061025f6106a7565b6040516102419190612db1565b34801561027857600080fd5b506102816106ad565b604051610241919061261c565b34801561029a57600080fd5b506102ae6102a9366004612434565b61073f565b604051610241919061258b565b3480156102c757600080fd5b506102db6102d636600461239e565b61078b565b005b3480156102e957600080fd5b506102db6102f83660046124b2565b610823565b34801561030957600080fd5b506102db61031836600461244c565b6108b4565b34801561032957600080fd5b5061025f610901565b34801561033e57600080fd5b506102db61034d3660046122b0565b610907565b34801561035e57600080fd5b5061025f61036d36600461239e565b61093f565b34801561037e57600080fd5b506102db610991565b34801561039357600080fd5b506102db6103a23660046122b0565b6109da565b3480156103b357600080fd5b506102db6103c2366004612434565b6109f5565b3480156103d357600080fd5b5061025f6103e2366004612434565b610a28565b3480156103f357600080fd5b506102db610402366004612401565b610a83565b34801561041357600080fd5b50610234610ad5565b34801561042857600080fd5b50610281610437366004612434565b610ade565b34801561044857600080fd5b506102ae610457366004612434565b610b78565b34801561046857600080fd5b5061025f61047736600461225c565b610bad565b34801561048857600080fd5b506102db610bf1565b34801561049d57600080fd5b506102ae6104ac366004612434565b610c3a565b3480156104bd57600080fd5b506102ae6104cc366004612434565b610c55565b3480156104dd57600080fd5b506102db610c70565b3480156104f257600080fd5b50610506610501366004612491565b610cb7565b60405161024192919061259f565b34801561052057600080fd5b506102ae610d00565b34801561053557600080fd5b506102db61054436600461225c565b610d14565b34801561055557600080fd5b506102db610564366004612434565b610d75565b34801561057557600080fd5b50610281610db9565b34801561058a57600080fd5b5061025f610dc8565b6102db6105a1366004612434565b610dce565b3480156105b257600080fd5b506102db6105c136600461236d565b610f29565b3480156105d257600080fd5b506102db6105e13660046122f0565b610f3b565b3480156105f257600080fd5b50610281610601366004612434565b610f7a565b34801561061257600080fd5b50610626610621366004612434565b610f85565b60405161024191906125fe565b34801561063f57600080fd5b5061023461064e366004612278565b611014565b34801561065f57600080fd5b506102db61066e36600461225c565b611042565b60006001600160e01b03198216631131d2f360e21b1415610696575060016106a2565b61069f826110b0565b90505b919050565b60135481565b6060600080546106bc90612e61565b80601f01602080910402602001604051908101604052809291908181526020018280546106e890612e61565b80156107355780601f1061070a57610100808354040283529160200191610735565b820191906000526020600020905b81548152906001019060200180831161071857829003601f168201915b5050505050905090565b600061074a826110d5565b61076f5760405162461bcd60e51b815260040161076690612af1565b60405180910390fd5b506000908152600460205260409020546001600160a01b031690565b600061079682610b78565b9050806001600160a01b0316836001600160a01b031614156107ca5760405162461bcd60e51b815260040161076690612c0a565b806001600160a01b03166107dc6110f2565b6001600160a01b031614806107f857506107f88161064e6110f2565b6108145760405162461bcd60e51b81526004016107669061292d565b61081e83836110f6565b505050565b61082b6110f2565b6001600160a01b031661083c610d00565b6001600160a01b0316146108625760405162461bcd60e51b815260040161076690612b3d565b612710816001600160601b0316111561088d5760405162461bcd60e51b8152600401610766906128e9565b600f80546bffffffffffffffffffffffff19166001600160601b0392909216919091179055565b6108bc6110f2565b6001600160a01b03166108cd610d00565b6001600160a01b0316146108f35760405162461bcd60e51b815260040161076690612b3d565b6108fd8282611164565b5050565b60085490565b6109186109126110f2565b826111a8565b6109345760405162461bcd60e51b815260040161076690612c4b565b61081e83838361122d565b600061094a83610bad565b82106109685760405162461bcd60e51b81526004016107669061265d565b506001600160a01b03919091166000908152600660209081526040808320938352929052205490565b6109996110f2565b6001600160a01b03166109aa610d00565b6001600160a01b0316146109d05760405162461bcd60e51b815260040161076690612b3d565b6109d861135a565b565b61081e83838360405180602001604052806000815250610f3b565b610a006109126110f2565b610a1c5760405162461bcd60e51b815260040161076690612d61565b610a25816113c8565b50565b6000610a32610901565b8210610a505760405162461bcd60e51b815260040161076690612c9c565b60088281548110610a7157634e487b7160e01b600052603260045260246000fd5b90600052602060002001549050919050565b610a8b6110f2565b6001600160a01b0316610a9c610d00565b6001600160a01b031614610ac25760405162461bcd60e51b815260040161076690612b3d565b80516108fd9060109060208401906120e5565b600b5460ff1690565b60146020526000908152604090208054610af790612e61565b80601f0160208091040260200160405190810160405280929190818152602001828054610b2390612e61565b8015610b705780601f10610b4557610100808354040283529160200191610b70565b820191906000526020600020905b815481529060010190602001808311610b5357829003601f168201915b505050505081565b6000818152600260205260408120546001600160a01b03168061069f5760405162461bcd60e51b8152600401610766906129d4565b60006001600160a01b038216610bd55760405162461bcd60e51b81526004016107669061298a565b506001600160a01b031660009081526003602052604090205490565b610bf96110f2565b6001600160a01b0316610c0a610d00565b6001600160a01b031614610c305760405162461bcd60e51b815260040161076690612b3d565b6109d860006113d1565b6015602052600090815260409020546001600160a01b031681565b6000908152601560205260409020546001600160a01b031690565b610c786110f2565b6001600160a01b0316610c89610d00565b6001600160a01b031614610caf5760405162461bcd60e51b815260040161076690612b3d565b6109d861142b565b600c6020528160005260406000208181548110610cd357600080fd5b6000918252602090912001546001600160a01b0381169250600160a01b90046001600160601b0316905082565b600b5461010090046001600160a01b031690565b610d1c6110f2565b6001600160a01b0316610d2d610d00565b6001600160a01b031614610d535760405162461bcd60e51b815260040161076690612b3d565b601280546001600160a01b0319166001600160a01b0392909216919091179055565b610d7d6110f2565b6001600160a01b0316610d8e610d00565b6001600160a01b031614610db45760405162461bcd60e51b815260040161076690612b3d565b600e55565b6060600180546106bc90612e61565b600e5490565b610dd6610ad5565b15610df35760405162461bcd60e51b8152600401610766906128bf565b80600e54610e019190612dff565b3414610e1f5760405162461bcd60e51b815260040161076690612ce8565b60135481610e2d600d611486565b610e379190612dd3565b1115610e555760405162461bcd60e51b81526004016107669061283e565b60005b81811015610eef57610e7333610e6e600d611486565b61148a565b3360156000610e82600d611486565b8152602081019190915260400160002080546001600160a01b0319166001600160a01b0392909216919091179055600f546001600160601b031615610ed357610ed3610ece600d611486565b6114a4565b610edd600d611572565b80610ee781612e9c565b915050610e58565b506011546040516001600160a01b03909116903480156108fc02916000818181858888f193505050501580156108fd573d6000803e3d6000fd5b6108fd610f346110f2565b838361157b565b610f4c610f466110f2565b836111a8565b610f685760405162461bcd60e51b815260040161076690612c4b565b610f748484848461161e565b50505050565b606061069f82611651565b6060600c6000838152602001908152602001600020805480602002602001604051908101604052809291908181526020016000905b8282101561100957600084815260209081902060408051808201909152908401546001600160a01b0381168252600160a01b90046001600160601b031681830152825260019092019101610fba565b505050509050919050565b6001600160a01b03918216600090815260056020908152604080832093909416825291909152205460ff1690565b61104a6110f2565b6001600160a01b031661105b610d00565b6001600160a01b0316146110815760405162461bcd60e51b815260040161076690612b3d565b6001600160a01b0381166110a75760405162461bcd60e51b8152600401610766906126fa565b610a25816113d1565b60006001600160e01b0319821663780e9d6360e01b148061069f575061069f8261176a565b6000908152600260205260409020546001600160a01b0316151590565b3390565b600081815260046020526040902080546001600160a01b0319166001600160a01b038416908117909155819061112b82610b78565b6001600160a01b03167f8c5be1e5ebec7d5bd14f71427d1e84f3dd0314c0f7b2291e5b200ac8c7c3b92560405160405180910390a45050565b61116d826110d5565b6111895760405162461bcd60e51b815260040161076690612a1d565b6000828152600a60209081526040909120825161081e928401906120e5565b60006111b3826110d5565b6111cf5760405162461bcd60e51b8152600401610766906127f2565b60006111da83610b78565b9050806001600160a01b0316846001600160a01b031614806112155750836001600160a01b031661120a8461073f565b6001600160a01b0316145b8061122557506112258185611014565b949350505050565b826001600160a01b031661124082610b78565b6001600160a01b0316146112665760405162461bcd60e51b815260040161076690612b72565b6001600160a01b03821661128c5760405162461bcd60e51b815260040161076690612777565b6112978383836117aa565b6112a26000826110f6565b6001600160a01b03831660009081526003602052604081208054600192906112cb908490612e1e565b90915550506001600160a01b03821660009081526003602052604081208054600192906112f9908490612dd3565b909155505060008181526002602052604080822080546001600160a01b0319166001600160a01b0386811691821790925591518493918716917fddf252ad1be2c89b69c2b068fc378daa952ba7f163c4a11628f55a4df523b3ef91a4505050565b611362610ad5565b61137e5760405162461bcd60e51b81526004016107669061262f565b600b805460ff191690557f5db9ee0a495bf2e6ff9c91a7834c1ba4fdd244a5e8aa4e537bd38aeae4b073aa6113b16110f2565b6040516113be919061258b565b60405180910390a1565b610a25816117da565b600b80546001600160a01b03838116610100818102610100600160a81b031985161790945560405193909204169182907f8be0079c531659141344cd1fd0a4f28419497f9722a3daafe3b4186f6b6457e090600090a35050565b611433610ad5565b156114505760405162461bcd60e51b8152600401610766906128bf565b600b805460ff191660011790557f62e78cea01bee320cd4e420270b5ea74000d11b0c9f74754ebdbfc544b05a2586113b16110f2565b5490565b6108fd82826040518060200160405280600081525061181a565b604080516001808252818301909252600091816020015b6114c3612169565b8152602001906001900390816114bb575050600f5481519192506001600160601b031690829060009061150657634e487b7160e01b600052603260045260246000fd5b6020908102919091018101516001600160601b0390921691015260125481516001600160a01b0390911690829060009061155057634e487b7160e01b600052603260045260246000fd5b60209081029190910101516001600160a01b0390911690526108fd828261184d565b80546001019055565b816001600160a01b0316836001600160a01b031614156115ad5760405162461bcd60e51b8152600401610766906127bb565b6001600160a01b0383811660008181526005602090815260408083209487168084529490915290819020805460ff1916851515179055517f17307eab39ab6107e8899845ad3d59bd9653f200f220920489ca2b5937696c3190611611908590612611565b60405180910390a3505050565b61162984848461122d565b611635848484846119b4565b610f745760405162461bcd60e51b8152600401610766906126a8565b606061165c826110d5565b6116785760405162461bcd60e51b815260040161076690612aa0565b6000828152600a60205260408120805461169190612e61565b80601f01602080910402602001604051908101604052809291908181526020018280546116bd90612e61565b801561170a5780601f106116df5761010080835404028352916020019161170a565b820191906000526020600020905b8154815290600101906020018083116116ed57829003601f168201915b50505050509050600061171b611acf565b905080516000141561172f575090506106a2565b81511561176157808260405160200161174992919061255c565b604051602081830303815290604052925050506106a2565b61122584611ade565b60006001600160e01b031982166380ac58cd60e01b148061179b57506001600160e01b03198216635b5e139f60e01b145b8061069f575061069f82611b61565b6117b2610ad5565b156117cf5760405162461bcd60e51b8152600401610766906128bf565b61081e838383611b7a565b6117e381611c03565b6000818152600a6020526040902080546117fc90612e61565b159050610a25576000818152600a60205260408120610a2591612180565b6118248383611caa565b61183160008484846119b4565b61081e5760405162461bcd60e51b8152600401610766906126a8565b60005b81518110156119a95760006001600160a01b031682828151811061188457634e487b7160e01b600052603260045260246000fd5b6020026020010151600001516001600160a01b031614156118b75760405162461bcd60e51b815260040161076690612d2a565b8181815181106118d757634e487b7160e01b600052603260045260246000fd5b6020026020010151602001516001600160601b03166000141561190c5760405162461bcd60e51b81526004016107669061288a565b6000838152600c60205260409020825183908390811061193c57634e487b7160e01b600052603260045260246000fd5b602090810291909101810151825460018101845560009384529282902081519301805491909201516001600160601b0316600160a01b026001600160a01b039384166001600160a01b031990921691909117909216919091179055806119a181612e9c565b915050611850565b506108fd8282611d89565b60006119c8846001600160a01b0316611dc6565b15611ac457836001600160a01b031663150b7a026119e46110f2565b8786866040518563ffffffff1660e01b8152600401611a0694939291906125c1565b602060405180830381600087803b158015611a2057600080fd5b505af1925050508015611a50575060408051601f3d908101601f19168201909252611a4d918101906123e5565b60015b611aaa573d808015611a7e576040519150601f19603f3d011682016040523d82523d6000602084013e611a83565b606091505b508051611aa25760405162461bcd60e51b8152600401610766906126a8565b805181602001fd5b6001600160e01b031916630a85bd0160e11b149050611225565b506001949350505050565b6060601080546106bc90612e61565b6060611ae9826110d5565b611b055760405162461bcd60e51b815260040161076690612bbb565b6000611b0f611acf565b90506000815111611b2f5760405180602001604052806000815250611b5a565b80611b3984611dcc565b604051602001611b4a92919061255c565b6040516020818303038152906040525b9392505050565b6001600160e01b031981166301ffc9a760e01b14919050565b611b8583838361081e565b6001600160a01b038316611ba157611b9c81611ee7565b611bc4565b816001600160a01b0316836001600160a01b031614611bc457611bc48382611f2b565b6001600160a01b038216611be057611bdb81611fc8565b61081e565b826001600160a01b0316826001600160a01b03161461081e5761081e82826120a1565b6000611c0e82610b78565b9050611c1c816000846117aa565b611c276000836110f6565b6001600160a01b0381166000908152600360205260408120805460019290611c50908490612e1e565b909155505060008281526002602052604080822080546001600160a01b0319169055518391906001600160a01b038416907fddf252ad1be2c89b69c2b068fc378daa952ba7f163c4a11628f55a4df523b3ef908390a45050565b6001600160a01b038216611cd05760405162461bcd60e51b815260040161076690612a6b565b611cd9816110d5565b15611cf65760405162461bcd60e51b815260040161076690612740565b611d02600083836117aa565b6001600160a01b0382166000908152600360205260408120805460019290611d2b908490612dd3565b909155505060008181526002602052604080822080546001600160a01b0319166001600160a01b03861690811790915590518392907fddf252ad1be2c89b69c2b068fc378daa952ba7f163c4a11628f55a4df523b3ef908290a45050565b7f3fa96d7b6bcbfe71ef171666d84db3cf52fa2d1c8afdb1cc8e486177f208b7df8282604051611dba929190612dba565b60405180910390a15050565b3b151590565b606081611df157506040805180820190915260018152600360fc1b60208201526106a2565b8160005b8115611e1b5780611e0581612e9c565b9150611e149050600a83612deb565b9150611df5565b60008167ffffffffffffffff811115611e4457634e487b7160e01b600052604160045260246000fd5b6040519080825280601f01601f191660200182016040528015611e6e576020820181803683370190505b5090505b841561122557611e83600183612e1e565b9150611e90600a86612eb7565b611e9b906030612dd3565b60f81b818381518110611ebe57634e487b7160e01b600052603260045260246000fd5b60200101906001600160f81b031916908160001a905350611ee0600a86612deb565b9450611e72565b600880546000838152600960205260408120829055600182018355919091527ff3f7a9fe364faab93b216da50a3214154f22a0a2b415b23a84c8169e8b636ee30155565b60006001611f3884610bad565b611f429190612e1e565b600083815260076020526040902054909150808214611f95576001600160a01b03841660009081526006602090815260408083208584528252808320548484528184208190558352600790915290208190555b5060009182526007602090815260408084208490556001600160a01b039094168352600681528383209183525290812055565b600854600090611fda90600190612e1e565b6000838152600960205260408120546008805493945090928490811061201057634e487b7160e01b600052603260045260246000fd5b90600052602060002001549050806008838154811061203f57634e487b7160e01b600052603260045260246000fd5b600091825260208083209091019290925582815260099091526040808220849055858252812055600880548061208557634e487b7160e01b600052603160045260246000fd5b6001900381819060005260206000200160009055905550505050565b60006120ac83610bad565b6001600160a01b039093166000908152600660209081526040808320868452825280832085905593825260079052919091209190915550565b8280546120f190612e61565b90600052602060002090601f0160209004810192826121135760008555612159565b82601f1061212c57805160ff1916838001178555612159565b82800160010185558215612159579182015b8281111561215957825182559160200191906001019061213e565b506121659291506121b8565b5090565b604080518082019091526000808252602082015290565b50805461218c90612e61565b6000825580601f1061219e5750610a25565b601f016020900490600052602060002090810190610a2591905b5b8082111561216557600081556001016121b9565b600067ffffffffffffffff808411156121e8576121e8612ef7565b604051601f8501601f19168101602001828111828210171561220c5761220c612ef7565b60405284815291508183850186101561222457600080fd5b8484602083013760006020868301015250509392505050565b600082601f83011261224d578081fd5b611b5a838335602085016121cd565b60006020828403121561226d578081fd5b8135611b5a81612f0d565b6000806040838503121561228a578081fd5b823561229581612f0d565b915060208301356122a581612f0d565b809150509250929050565b6000806000606084860312156122c4578081fd5b83356122cf81612f0d565b925060208401356122df81612f0d565b929592945050506040919091013590565b60008060008060808587031215612305578081fd5b843561231081612f0d565b9350602085013561232081612f0d565b925060408501359150606085013567ffffffffffffffff811115612342578182fd5b8501601f81018713612352578182fd5b612361878235602084016121cd565b91505092959194509250565b6000806040838503121561237f578182fd5b823561238a81612f0d565b9150602083013580151581146122a5578182fd5b600080604083850312156123b0578182fd5b82356123bb81612f0d565b946020939093013593505050565b6000602082840312156123da578081fd5b8135611b5a81612f22565b6000602082840312156123f6578081fd5b8151611b5a81612f22565b600060208284031215612412578081fd5b813567ffffffffffffffff811115612428578182fd5b6112258482850161223d565b600060208284031215612445578081fd5b5035919050565b6000806040838503121561245e578182fd5b82359150602083013567ffffffffffffffff81111561247b578182fd5b6124878582860161223d565b9150509250929050565b600080604083850312156124a3578182fd5b50508035926020909101359150565b6000602082840312156124c3578081fd5b81356001600160601b0381168114611b5a578182fd5b6000815180845260208085019450808401835b8381101561252557815180516001600160a01b031688528301516001600160601b031683880152604090960195908201906001016124ec565b509495945050505050565b60008151808452612548816020860160208601612e35565b601f01601f19169290920160200192915050565b6000835161256e818460208801612e35565b835190830190612582818360208801612e35565b01949350505050565b6001600160a01b0391909116815260200190565b6001600160a01b039290921682526001600160601b0316602082015260400190565b6001600160a01b03858116825284166020820152604081018390526080606082018190526000906125f490830184612530565b9695505050505050565b600060208252611b5a60208301846124d9565b901515815260200190565b600060208252611b5a6020830184612530565b60208082526014908201527314185d5cd8589b194e881b9bdd081c185d5cd95960621b604082015260600190565b6020808252602b908201527f455243373231456e756d657261626c653a206f776e657220696e646578206f7560408201526a74206f6620626f756e647360a81b606082015260800190565b60208082526032908201527f4552433732313a207472616e7366657220746f206e6f6e20455243373231526560408201527131b2b4bb32b91034b6b83632b6b2b73a32b960711b606082015260800190565b60208082526026908201527f4f776e61626c653a206e6577206f776e657220697320746865207a65726f206160408201526564647265737360d01b606082015260800190565b6020808252601c908201527f4552433732313a20746f6b656e20616c7265616479206d696e74656400000000604082015260600190565b60208082526024908201527f4552433732313a207472616e7366657220746f20746865207a65726f206164646040820152637265737360e01b606082015260800190565b60208082526019908201527f4552433732313a20617070726f766520746f2063616c6c657200000000000000604082015260600190565b6020808252602c908201527f4552433732313a206f70657261746f7220717565727920666f72206e6f6e657860408201526b34b9ba32b73a103a37b5b2b760a11b606082015260800190565b6020808252602c908201527f536176616765536e6f776d656e3a20737570706c7920746f6f206c6f7720746f60408201526b081b5a5b9d08185b5bdd5b9d60a21b606082015260800190565b6020808252818101527f526f79616c74792076616c75652073686f756c6420626520706f736974697665604082015260600190565b60208082526010908201526f14185d5cd8589b194e881c185d5cd95960821b604082015260600190565b60208082526024908201527f536176616765536e6f776d656e3a20426173697320506f696e747320746f6f206040820152630d0d2ced60e31b606082015260800190565b60208082526038908201527f4552433732313a20617070726f76652063616c6c6572206973206e6f74206f7760408201527f6e6572206e6f7220617070726f76656420666f7220616c6c0000000000000000606082015260800190565b6020808252602a908201527f4552433732313a2062616c616e636520717565727920666f7220746865207a65604082015269726f206164647265737360b01b606082015260800190565b60208082526029908201527f4552433732313a206f776e657220717565727920666f72206e6f6e657869737460408201526832b73a103a37b5b2b760b91b606082015260800190565b6020808252602e908201527f45524337323155524953746f726167653a2055524920736574206f66206e6f6e60408201526d32bc34b9ba32b73a103a37b5b2b760911b606082015260800190565b6020808252818101527f4552433732313a206d696e7420746f20746865207a65726f2061646472657373604082015260600190565b60208082526031908201527f45524337323155524953746f726167653a2055524920717565727920666f72206040820152703737b732bc34b9ba32b73a103a37b5b2b760791b606082015260800190565b6020808252602c908201527f4552433732313a20617070726f76656420717565727920666f72206e6f6e657860408201526b34b9ba32b73a103a37b5b2b760a11b606082015260800190565b6020808252818101527f4f776e61626c653a2063616c6c6572206973206e6f7420746865206f776e6572604082015260600190565b60208082526029908201527f4552433732313a207472616e73666572206f6620746f6b656e2074686174206960408201526839903737ba1037bbb760b91b606082015260800190565b6020808252602f908201527f4552433732314d657461646174613a2055524920717565727920666f72206e6f60408201526e3732bc34b9ba32b73a103a37b5b2b760891b606082015260800190565b60208082526021908201527f4552433732313a20617070726f76616c20746f2063757272656e74206f776e656040820152603960f91b606082015260800190565b60208082526031908201527f4552433732313a207472616e736665722063616c6c6572206973206e6f74206f6040820152701ddb995c881b9bdc88185c1c1c9bdd9959607a1b606082015260800190565b6020808252602c908201527f455243373231456e756d657261626c653a20676c6f62616c20696e646578206f60408201526b7574206f6620626f756e647360a01b606082015260800190565b60208082526022908201527f536176616765536e6f776d656e3a20696e76616c696420616d6f756e742073656040820152611b9d60f21b606082015260800190565b6020808252601b908201527f526563697069656e742073686f756c642062652070726573656e740000000000604082015260600190565b60208082526030908201527f4552433732314275726e61626c653a2063616c6c6572206973206e6f74206f7760408201526f1b995c881b9bdc88185c1c1c9bdd995960821b606082015260800190565b90815260200190565b60008382526040602083015261122560408301846124d9565b60008219821115612de657612de6612ecb565b500190565b600082612dfa57612dfa612ee1565b500490565b6000816000190483118215151615612e1957612e19612ecb565b500290565b600082821015612e3057612e30612ecb565b500390565b60005b83811015612e50578181015183820152602001612e38565b83811115610f745750506000910152565b600281046001821680612e7557607f821691505b60208210811415612e9657634e487b7160e01b600052602260045260246000fd5b50919050565b6000600019821415612eb057612eb0612ecb565b5060010190565b600082612ec657612ec6612ee1565b500690565b634e487b7160e01b600052601160045260246000fd5b634e487b7160e01b600052601260045260246000fd5b634e487b7160e01b600052604160045260246000fd5b6001600160a01b0381168114610a2557600080fd5b6001600160e01b031981168114610a2557600080fdfea264697066735822122007a2f632f2ab657eac15fa191137bb5d433016a4be56fd8af600a6d3ebffdbd264736f6c63430008000033",
  "immutableReferences": {},
  "source": "// SPDX-License-Identifier: MIT\n// SavageSnowmen v0.1\npragma solidity ^0.8.0;\n\nimport \"@openzeppelin/contracts/token/ERC721/ERC721.sol\";\nimport \"@openzeppelin/contracts/token/ERC721/extensions/ERC721URIStorage.sol\";\nimport \"@openzeppelin/contracts/token/ERC721/extensions/ERC721Enumerable.sol\";\nimport \"@openzeppelin/contracts/token/ERC721/extensions/ERC721Burnable.sol\";\nimport \"@openzeppelin/contracts/security/Pausable.sol\";\nimport \"@openzeppelin/contracts/access/Ownable.sol\";\nimport \"@openzeppelin/contracts/utils/Counters.sol\";\nimport \"@openzeppelin/contracts/utils/math/SafeMath.sol\";\nimport \"./rarible/royalties/contracts/impl/RoyaltiesV2Impl.sol\";\nimport \"./rarible/royalties/contracts/LibPart.sol\";\nimport \"./rarible/royalties/contracts/LibRoyaltiesV2.sol\";\n\ncontract SavageSnowmen is\n    ERC721,\n    ERC721Enumerable,\n    ERC721URIStorage,\n    ERC721Burnable,\n    Pausable,\n    Ownable,\n    RoyaltiesV2Impl\n{\n    using Counters for Counters.Counter;\n    using SafeMath for uint256;\n\n    Counters.Counter private _tokenIdCounter;\n    uint256 private _price;\n    uint96 private _percentBasisPoints;\n\n    string private _tokenBaseURI;\n\n    address payable private _treasuryWallet;\n    address payable private _royaltiesWallet;\n\n    uint256 public _cap;\n\n    mapping(uint256 => string) public tokenIdToTokenURI;\n    mapping(uint256 => address) public tokenToMinter;\n\n    constructor(\n        string memory name,\n        string memory symbol,\n        string memory tokenBaseURI,\n        uint256 mintPrice,\n        uint256 cap,\n        address payable treasuryWallet,\n        address payable royaltiesWallet\n    ) ERC721(name, symbol) {\n        _price = mintPrice;\n        _cap = cap;\n        _tokenBaseURI = tokenBaseURI;\n        _treasuryWallet = treasuryWallet;\n        _royaltiesWallet = royaltiesWallet;\n        _percentBasisPoints = 0;\n    }\n\n    function pause() public onlyOwner {\n        _pause();\n    }\n\n    function unpause() public onlyOwner {\n        _unpause();\n    }\n\n    /// @inheritdoc\tERC165\n    function supportsInterface(bytes4 interfaceId)\n        public\n        view\n        virtual\n        override(ERC721, ERC721Enumerable)\n        returns (bool)\n    {\n        if (interfaceId == LibRoyaltiesV2._INTERFACE_ID_ROYALTIES) {\n            return true;\n        }\n        return super.supportsInterface(interfaceId);\n    }\n\n    function setBaseURI(string memory uri) external onlyOwner {\n        _tokenBaseURI = uri;\n    }\n\n    function setRoyaltiesWallet(address payable wallet) external onlyOwner {\n        _royaltiesWallet = wallet;\n    }\n\n    function _baseURI() internal view virtual override returns (string memory) {\n        return _tokenBaseURI;\n    }\n\n    function tokenMinter(uint256 tokenId) public view returns (address) {\n        return tokenToMinter[tokenId];\n    }\n\n    function mint(uint256 amount) public payable whenNotPaused {\n        require(\n            msg.value == _price * amount,\n            \"SavageSnowmen: invalid amount sent\"\n        );\n        require(\n            _tokenIdCounter.current() + amount <= _cap,\n            \"SavageSnowmen: supply too low to mint amount\"\n        );\n\n        for (uint256 x = 0; x < amount; x++) {\n            _safeMint(msg.sender, _tokenIdCounter.current());\n            tokenToMinter[_tokenIdCounter.current()] = msg.sender;\n            if (_percentBasisPoints > 0) {\n                _setRoyalties(_tokenIdCounter.current());\n            }\n\n            _tokenIdCounter.increment();\n        }\n\n        payable(_treasuryWallet).transfer(msg.value);\n    }\n\n    function _beforeTokenTransfer(\n        address from,\n        address to,\n        uint256 tokenId\n    ) internal override(ERC721, ERC721Enumerable) whenNotPaused {\n        super._beforeTokenTransfer(from, to, tokenId);\n    }\n\n    // The following functions are overrides required by Solidity.\n\n    function _burn(uint256 tokenId)\n        internal\n        override(ERC721, ERC721URIStorage)\n    {\n        super._burn(tokenId);\n    }\n\n    function setTokenURI(uint256 tokenId, string memory _tokenURI)\n        external\n        onlyOwner\n    {\n        _setTokenURI(tokenId, _tokenURI);\n    }\n\n    function setPrice(uint256 mintPrice) external onlyOwner {\n        _price = mintPrice;\n    }\n\n    function price() public view returns (uint256) {\n        return _price;\n    }\n\n    function tokenURI(uint256 tokenId)\n        public\n        view\n        override(ERC721, ERC721URIStorage)\n        returns (string memory)\n    {\n        return ERC721URIStorage.tokenURI(tokenId);\n    }\n\n    function _setRoyalties(uint256 _tokenId) private {\n        LibPart.Part[] memory _royalties = new LibPart.Part[](1);\n        _royalties[0].value = _percentBasisPoints;\n        _royalties[0].account = _royaltiesWallet;\n        _saveRoyalties(_tokenId, _royalties);\n    }\n\n    function setBasisPoints(uint96 value) external onlyOwner {\n        require(value <= 10000, 'SavageSnowmen: Basis Points too high');\n        _percentBasisPoints = value;\n    }\n}\n",
  "sourcePath": "/home/duval/Code/FueledOnBacon/nft-contracts/src/contracts/SavageSnowmen.sol",
  "compiler": {
    "name": "solc",
    "version": "0.8.0+commit.c7dfd78e.Emscripten.clang"
  },
  "schemaVersion": "3.4.3",
  "updatedAt": "2021-12-10T14:50:36.944Z",
  "devdoc": {
    "kind": "dev",
    "methods": {
      "approve(address,uint256)": {
        "details": "See {IERC721-approve}."
      },
      "balanceOf(address)": {
        "details": "See {IERC721-balanceOf}."
      },
      "burn(uint256)": {
        "details": "Burns `tokenId`. See {ERC721-_burn}. Requirements: - The caller must own `tokenId` or be an approved operator."
      },
      "getApproved(uint256)": {
        "details": "See {IERC721-getApproved}."
      },
      "isApprovedForAll(address,address)": {
        "details": "See {IERC721-isApprovedForAll}."
      },
      "name()": {
        "details": "See {IERC721Metadata-name}."
      },
      "owner()": {
        "details": "Returns the address of the current owner."
      },
      "ownerOf(uint256)": {
        "details": "See {IERC721-ownerOf}."
      },
      "paused()": {
        "details": "Returns true if the contract is paused, and false otherwise."
      },
      "renounceOwnership()": {
        "details": "Leaves the contract without owner. It will not be possible to call `onlyOwner` functions anymore. Can only be called by the current owner. NOTE: Renouncing ownership will leave the contract without an owner, thereby removing any functionality that is only available to the owner."
      },
      "safeTransferFrom(address,address,uint256)": {
        "details": "See {IERC721-safeTransferFrom}."
      },
      "safeTransferFrom(address,address,uint256,bytes)": {
        "details": "See {IERC721-safeTransferFrom}."
      },
      "setApprovalForAll(address,bool)": {
        "details": "See {IERC721-setApprovalForAll}."
      },
      "supportsInterface(bytes4)": {
        "details": "See {IERC165-supportsInterface}."
      },
      "symbol()": {
        "details": "See {IERC721Metadata-symbol}."
      },
      "tokenByIndex(uint256)": {
        "details": "See {IERC721Enumerable-tokenByIndex}."
      },
      "tokenOfOwnerByIndex(address,uint256)": {
        "details": "See {IERC721Enumerable-tokenOfOwnerByIndex}."
      },
      "totalSupply()": {
        "details": "See {IERC721Enumerable-totalSupply}."
      },
      "transferFrom(address,address,uint256)": {
        "details": "See {IERC721-transferFrom}."
      },
      "transferOwnership(address)": {
        "details": "Transfers ownership of the contract to a new account (`newOwner`). Can only be called by the current owner."
      }
    },
    "version": 1
  },
  "userdoc": {
    "kind": "user",
    "methods": {},
    "version": 1
  }
}